:020000021000EC
:10F000000C9446F80C9465F80C9465F80C9465F82B
:10F010000C9465F80C9465F80C9465F80C9465F8FC
:10F020000C9465F80C9465F80C9465F80C9465F8EC
:10F030000C9465F80C9465F80C9465F80C9465F8DC
:10F040000C9465F80C9465F80C9465F80C9465F8CC
:10F050000C9465F80C9465F80C9465F80C9465F8BC
:10F060000C9465F80C9465F80C9465F80C9465F8AC
:10F070000C9465F80C9465F80C9465F80C9465F89C
:10F080000C9465F80C9465F80C9465F811241FBE77
:10F09000CBEFD0E4DEBFCDBF11E0A0E0B1E0E0EC0B
:10F0A000FBEF01E00BBF02C007900D92A630B10745
:10F0B000D9F722E0A6E0B1E001C01D92A237B20765
:10F0C000E1F70E9410FB0C94DEFD0C9400F8909187
:10F0D000C00095FFFCCF8093C6000895FB012081FE
:10F0E000318198E0432F441F4427441F220F331FD0
:10F0F00087FD2160442321F0F2E02F27F0E13F2734
:10F10000880F915079F7FB01318320830895109285
:10F1100019021092180210921C028FEF9FEF909329
:10F1200005018093040110921B0208950F931F9311
:10F13000CF93DF93D1E00FEF1FEF80911702811182
:10F14000C6C08091C00087FFC2C0C091C60083E0E6
:10F150008C0F8230B0F4D0931902109218021092E2
:10F160001C02109305010093040110921B021093DE
:10F1700003010093020162E071E08C2F0E946EF89F
:10F18000DCCF809119028823C1F2CC3F19F4D093CF
:10F190001802D3CF80911802882319F0C06810920A
:10F1A000180262E071E08C2F0E946EF880911C02C0
:10F1B0008035B0F4E82FF0E0E35EFD4FC08384308B
:10F1C00079F4C3FF05C091E02C2F2370233009F49C
:10F1D00090E090931A02992369F19AE090931B02B0
:10F1E00020911B02222371F0422F50E0BA0161509E
:10F1F00071098617170631F44C0F511D5093050104
:10F20000409304018F5F80931C0240910401509150
:10F210000501141615060CF056C08417150609F0E2
:10F2200052C08091020190910301892B29F00E9424
:10F2300087F883CF96E0D2CF60911D0270911E02B5
:10F2400080911F02909120020E94BFFD60931302E3
:10F2500070931402809315029093160280912102FC
:10F2600080930E0280911A02882349F16091220254
:10F270007091230280912402909125020E94BFFD8B
:10F2800060930F0270931002809311029093120208
:10F29000822F90E0FC01E45EFD4F2081223008F4D3
:10F2A00022E0225020930B02835E9D4F90930D022B
:10F2B00080930C020E9487F8D09317023ECF60E043
:10F2C00070E0CB01DDCF803508F437CFB0CFDF91D0
:10F2D000CF911F910F91089507B600FE08950E94E7
:10F2E00096F8FACFCF93C82F0E946EF884E08C0F67
:10F2F000833040F48CEF0E9467F88C2F8F77CF918A
:10F300000C9467F88C2FFBCFCF92DF92EF92FF9295
:10F310001F93CF93DF9380910A01882309F43EC0A5
:10F32000C0910001D09101016E01F12CE12C83E02C
:10F33000F601E0925B0080935700E8950E946CF91B
:10F340002BE032E0ABE0B1E011E0CE018B50914018
:10F35000AC014A0F5B1F70E060E01196CC911197F1
:10F36000EC91DC2FCE2F0E01FA0160935B0010931D
:10F370005700E895112412962A173B0749F785E0B4
:10F38000F601E0925B0080935700E8950E946CF9CB
:10F3900081E180935700E89510920A01DF91CF91A7
:10F3A0001F91FF90EF90DF90CF9008955A981092A0
:10F3B000C100F894F0E0E0E00994CF9394E0980F56
:10F3C000933030F4C82F8CEF0E9467F88C2F8F7722
:10F3D000CF910C9467F8AF92BF92CF92DF92EF92E9
:10F3E000FF920F931F93CF93DF9300D0CDB7DEB77B
:10F3F000F62EE72EB82EA92E142F69018FEF9FEF5E
:10F400009A8389835C9A8DEF0E9467F8BE016F5FD3
:10F410007F4F8DEF0E946EF8BE016F5F7F4F8A2D88
:10F420000E9472F9BE016F5F7F4F8B2D0E9472F9AF
:10F43000BE016F5F7F4F8E2D0E9472F9BE016F5F1C
:10F440007F4F8F2D0E9472F9BE016F5F7F4F812F1A
:10F450000E9472F913FF1FC010916E02F0906F02AC
:10F46000E090700280917102BE016F5F7F4F0E9439
:10F4700072F9BE016F5F7F4F8E2D0E9472F9BE013F
:10F480006F5F7F4F8F2D0E9472F9BE016F5F7F4FBC
:10F49000812F0E9472F9BE016F5F7F4F82E0800F63
:10F4A0000E9472F976010C0D1D2D111DBE016F5FBA
:10F4B0007F4FE016F10631F580E00E946EF8BE0144
:10F4C0006F5F7F4F80E00E946EF88A810E94DDF9B5
:10F4D00089810E94DDF98091C00086FFFCCF809178
:10F4E000C00080648093C0005C980F900F90DF9103
:10F4F000CF911F910F91FF90EF90DF90CF90BF9031
:10F50000AF900895F70181917F010E9472F9CECFEB
:10F510000F9340916D024295440F407E496100E097
:10F5200030E020E00E94EBF90F9108950F93CF9304
:10F53000DF9300D0CDB7DEB78FEF898388E08A8371
:10F5400002E09E012F5F3F4F48EF6FEF7FEFCB014F
:10F550000E94EBF90F900F90DF91CF910F910895DA
:10F560008F929F92AF92BF92CF92DF92EF92FF92D3
:10F570000F931F93CF93DF93CDB7DEB760970FB68E
:10F58000F894DEBF0FBECDBF81E489831A821B824F
:10F590001C821D8285E08E8360916E0270916F02E5
:10F5A000809170029091710228E42F8322E42887D1
:10F5B00027E529878E010F5F1F4F7E0126E0E21AA3
:10F5C000F10868012AE0822E912CA12CB12CA50112
:10F5D00094010E949DFD605DF8016787B901CA0131
:10F5E00001501109E016F10691F700E1960148EF8C
:10F5F0006FEF7FEFCB010E94EBF960960FB6F894A6
:10F60000DEBF0FBECDBFDF91CF911F910F91FF9055
:10F61000EF90DF90CF90BF90AF909F908F90089524
:10F62000CF93DF93CDB7DEB7C454D1090FB6F894AA
:10F63000DEBF0FBECDBF24B714BE0FB6F894A89599
:10F6400080916000886180936000109260000FBE1E
:10F650001BBE8091FC409091FD40A091FE40B09176
:10F66000FF401092FC401092FD401092FE4010921C
:10F67000FF40F0E0E0E04591549124981C9B0CC0C1
:10F680004F3F5F4F49F023FF05C08A379A4DA7408F
:10F69000B04B11F00E94D6F98CEF9FE00E94D6FD8E
:10F6A000182F8DEF9FE00E94D6FD90E0B0E0A0E023
:10F6B0007C01DD24CC24F12A8EEF9FE00E94D6FD50
:10F6C000182F8FEF9FE00E94D6FD9601282BD701BF
:10F6D000C901912B80936E0290936F02A0937002E8
:10F6E000B09371028F3F9F4FAF4FBF4F61F48FEFC9
:10F6F0009FEFAFEFB2E480936E0290936F02A093FE
:10F700007002B09371021092C50083E38093C4002D
:10F7100086E28093C20088E18093C100549A5C988D
:10F72000529A88EC90E020E931E0F9013197F1F745
:10F730000197D9F70E9496FA80E29EE40197F1F7CB
:10F740000E94B0FA1092800085E0809381001092B0
:10F7500085001092840081E086BBD12CAE014F5F02
:10F760005F4F2A01CE01049625969FAF8EAF259755
:10F7700022242A94322C77247394809184009091CF
:10F78000850020910801222309F449C093FF4CC051
:10F790005A9A0E9496F880911702882309F448C06B
:10F7A00010921702409113025091140260911502B9
:10F7B0007091160280900F0290901002A09011029A
:10F7C000B0901202E0900C02F0900D0200910B023A
:10F7D00010910E021695137010936D024F3FBFEFFC
:10F7E0005B076B077B0769F080916E0290916F0257
:10F7F000A0917002B0917102481759076A077B0700
:10F80000B9F40023A9F0F70180818A3721F5D0905F
:10F810000701DD2059F070920601D12C09C09F73B9
:10F820008115944008F4B4CF5A98B3CF7092070171
:10F83000B09BA3CF81E086BBD39425E02D1508F0C3
:10F840009ACFF0E0E0E085919491019609F493CF8E
:10F850000E94D6F990CF8A3529F4109206011092B1
:10F860000701DBCF4F3F5F4F6F4F7F4F09F3909101
:10F870000601992379F08537D9F610920601109286
:10F880000701C501B4010E9488FA0E9496FA0E94FD
:10F89000B0FAC3CF803709F4B6C0E0F5873609F473
:10F8A0000BC138F4813499F3C501B4010E9488FA80
:10F8B000BFCF883609F4C9C08E36B1F760916E02A9
:10F8C00070916F02809170029091710228E42983F7
:10F8D00022E42A8327E52B837E014BE0E40EF11C12
:10F8E0002AE030E040E050E00E949DFD605DD701DD
:10F8F0006E937D01B901CA012596EEADFFAD259746
:10F90000EA17FB0769F7412F4295440F407E48698B
:10F910000AE08CC0853709F4B0CF08F5823721F6AC
:10F92000043008F47ACFF701C180D280DC24CD24E2
:10F93000DC240381709208010E9484F9013408F0EC
:10F9400000E4D201C418D5088A2F8419801708F45E
:10F95000ADC0412F4295440F407E496167C0863754
:10F9600009F46AC0873709F09FCF043008F455CFF7
:10F97000D7011196CD90DC901297DC24CD24DC24A5
:10F9800013968C919CEF692E600E861508F4682EF4
:10F9900022961FAE229723966FAE2397412F429552
:10F9A000440F407E496102E09E012F5B3F4FC5013D
:10F9B000B4010E94EBF970920801062D013408F0A1
:10F9C00000E4402F50E0B7016C5F7F4FC2010E94FE
:10F9D000C6FD80910901811112C083E020E030E072
:10F9E000A901F90140935B0080935700E8950E94BC
:10F9F0006CF991E190935700E895709209015201DA
:10FA0000C418D5084EC00E9484F93092010120929A
:10FA1000000110920A0110920901198220E42A8340
:10FA2000412F4295440F407E496102E09201C50199
:10FA3000B4010E94EBF9F1CE198235E03A83412FEF
:10FA40004295440F407E4869F0CF19821A82F7CF61
:10FA50007601EA0CFB1C47018824809100019091FB
:10FA600001018816990671F00E9484F990920101B3
:10FA70008092000140E051E06FEF70E08BE091E098
:10FA80000E94CFFDD5018D915D0120910001309143
:10FA90000101F701E21BF30BE55FFE4F80837092DB
:10FAA0000A018A2D8419801798F2B7CEF601EA0F61
:10FAB000FB1FE491ED9348CF053050F1D70111962B
:10FAC000CD90DC901297DC24CD24DC241396ED90AD
:10FAD000FC90FE24EF24FE240E9484F9C501B401A9
:10FAE0000E9488FA80E29EE40197F1F70530E8F081
:10FAF0003A82298210E000E0C016D10671F48981B3
:10FB00009A81E816F90609F088CE0E94D6F985CECA
:10FB1000F12CE12CD12CC12CDFCFF8018491B20162
:10FB20000E946EF80F5F1F4FE7CFF0E0E0E0859195
:10FB30009491019609F471CEE8CFA1E21A2EAA1B86
:10FB4000BB1BFD010DC0AA1FBB1FEE1FFF1FA2178D
:10FB5000B307E407F50720F0A21BB30BE40BF50B8A
:10FB6000661F771F881F991F1A9469F76095709513
:10FB7000809590959B01AC01BD01CF010895692747
:10FB8000962769277827872778270895FB01DC01C6
:10FB900002C001900D9241505040D8F70895DC0109
:10FBA00001C06D9341505040E0F70895F999FECFA0
:10FBB00092BD81BDF89A992780B50895F894FFCF3A
:06FBC000FFFFFFFFFFFF45
:040000031000F000F9
:00000001FF
