:10F000000C943E780C945B780C945B780C945B7851
:10F010000C945B780C945B780C945B780C945B7824
:10F020000C945B780C945B780C945B780C945B7814
:10F030000C945B780C945B780C945B780C945B7804
:10F040000C945B780C945B780C945B780C945B78F4
:10F050000C945B780C945B780C945B780C945B78E4
:10F060000C945B780C945B780C945B780C945B78D4
:10F070000C945B780C945B780C945B7811241FBE25
:10F08000CBEFD0E1DEBFCDBF11E0A0E0B1E0E6E81C
:10F09000FBEF02C005900D92A630B107D9F722E030
:10F0A000A6E0B1E001C01D92A237B207E1F70E94CD
:10F0B000F17A0C94C17D0C9400789091C00095FF7A
:10F0C000FCCF8093C6000895FB012081318198E038
:10F0D000432F441F4427441F220F331F87FD216005
:10F0E000442321F0F2E02F27F0E13F27880F9150D1
:10F0F00079F7FB0131832083089510921902109251
:10F10000180210921C028FEF9FEF909305018093DD
:10F11000040110921B0208950F931F93CF93DF9366
:10F12000D1E00FEF1FEF809117028111C6C08091CF
:10F13000C00087FFC2C0C091C60083E08C0F823040
:10F14000B0F4D09319021092180210921C0210937E
:10F1500005010093040110921B0210930301009318
:10F16000020162E071E08C2F0E946478DCCF809114
:10F1700019028823C1F2CC3F19F4D0931802D3CFDF
:10F1800080911802882319F0C0681092180262E07A
:10F1900071E08C2F0E94647880911C028035B0F45D
:10F1A000E82FF0E0E35EFD4FC083843079F4C3FFC5
:10F1B00005C091E02C2F2370233009F490E0909348
:10F1C0001A02992369F19AE090931B0220911B0285
:10F1D000222371F0422F50E0BA0161507109861765
:10F1E000170631F44C0F511D509305014093040153
:10F1F0008F5F80931C024091040150910501141609
:10F2000015060CF056C08417150609F052C08091FF
:10F21000020190910301892B29F00E947D7883CF10
:10F2200096E0D2CF60911D0270911E0280911F0264
:10F23000909120020E94A27D6093130270931402A9
:10F2400080931502909316028091210280930E0202
:10F2500080911A02882349F1609122027091230261
:10F2600080912402909125020E94A27D60930F025A
:10F27000709310028093110290931202822F90E0FB
:10F28000FC01E45EFD4F2081223008F422E0225090
:10F2900020930B02835E9D4F90930D0280930C028E
:10F2A0000E947D78D09317023ECF60E070E0CB01E2
:10F2B000DDCF803508F437CFB0CFDF91CF911F91EC
:10F2C0000F91089507B600FE08950E948C78FACF3A
:10F2D000CF93C82F0E94647884E08C0F833040F471
:10F2E0008CEF0E945D788C2F8F77CF910C945D7896
:10F2F0008C2FFBCFCF93DF9380910A01882309F4F1
:10F3000033C0C0910001D091010183E0FE018093E0
:10F310005700E8950E9462792BE032E0ABE0B1E063
:10F3200041E0BE016B507140FB01EA0FFB1F1196DB
:10F330008C9111979C918927982789270C014093DC
:10F340005700E895112412962A173B0769F785E0C4
:10F35000FE0180935700E8950E94627981E18093D5
:10F360005700E89510920A01DF91CF9108955A98BD
:10F370001092C100F894F0E0E0E00994CF9394E09B
:10F38000980F933030F4C82F8CEF0E945D788C2F4B
:10F390008F77CF910C945D78AF92BF92CF92DF922E
:10F3A000EF92FF920F931F93CF93DF9300D0CDB7CF
:10F3B000DEB7F62EE72EB82EA92E142F69018FEF97
:10F3C0009FEF9A8389835C9A8DEF0E945D78BE01DE
:10F3D0006F5F7F4F8DEF0E946478BE016F5F7F4F3C
:10F3E0008A2D0E946879BE016F5F7F4F8B2D0E942E
:10F3F0006879BE016F5F7F4F8E2D0E946879BE01D4
:10F400006F5F7F4F8F2D0E946879BE016F5F7F4FC6
:10F41000812F0E94687913FF1FC010916E02F09037
:10F420006F02E090700280917102BE016F5F7F4FAA
:10F430000E946879BE016F5F7F4F8E2D0E946879B0
:10F44000BE016F5F7F4F8F2D0E946879BE016F5F95
:10F450007F4F812F0E946879BE016F5F7F4F82E0EE
:10F46000800F0E94687976010C0D1D2D111DBE01C3
:10F470006F5F7F4FE016F10631F580E00E946478FF
:10F48000BE016F5F7F4F80E00E9464788A810E9496
:10F49000BE7989810E94BE798091C00086FFFCCF31
:10F4A0008091C00080648093C0005C980F900F90A2
:10F4B000DF91CF911F910F91FF90EF90DF90CF9050
:10F4C000BF90AF900895F70181917F010E94687904
:10F4D000CECF0F9340916D024295440F407E49611B
:10F4E00000E030E020E00E94CC790F9108950F9366
:10F4F000CF93DF9300D0CDB7DEB78FEF898388E05D
:10F500008A8302E09E012F5F3F4F48EF6FEF7FEF4E
:10F51000CB010E94CC790F900F90DF91CF910F918A
:10F5200008958F929F92AF92BF92CF92DF92EF9207
:10F53000FF920F931F93CF93DF93CDB7DEB7609702
:10F540000FB6F894DEBF0FBECDBF81E489831A8267
:10F550001B821C821D8285E08E8360916E027091F9
:10F560006F02809170029091710228E42F8322E44F
:10F57000288727E529878E010F5F1F4F7E0126E030
:10F58000E21AF10868012AE0822E912CA12CB12CFC
:10F59000A50194010E94807D605DF8016787B90133
:10F5A000CA0101501109E016F10691F700E1960138
:10F5B00048EF6FEF7FEFCB010E94CC7960960FB6DA
:10F5C000F894DEBF0FBECDBFDF91CF911F910F9199
:10F5D000FF90EF90DF90CF90BF90AF909F908F9073
:10F5E0000895CF93DF93CDB7DEB7C454D1090FB6DA
:10F5F000F894DEBF0FBECDBF24B714BE0FB6F8948B
:10F60000A8958091600088618093600010926000EE
:10F610000FBE8091FC109091FD10A091FE10B09152
:10F62000FF101092FC101092FD101092FE1010921C
:10F63000FF10F0E0E0E0459154914F3F5F4F49F0FB
:10F6400023FF05C08A379A4DA740B04B11F00E94A6
:10F65000B7798CEF97E00E94B97D182F8DEF97E076
:10F660000E94B97D90E0B0E0A0E07C01DD24CC24D4
:10F67000F12A8EEF97E00E94B97D182F8FEF97E067
:10F680000E94B97D9601282BD701C901912B809347
:10F690006E0290936F02A0937002B09371028F3F3D
:10F6A0009F4FAF4FBF4F61F48FEF9FEFAFEFB2E4CB
:10F6B00080936E0290936F02A0937002B0937102D8
:10F6C0001092C50083E38093C40086E28093C20059
:10F6D00088E18093C100549A5C98529A88EC90E03B
:10F6E00020E931E0F9013197F1F70197D9F70E944C
:10F6F000777A80E29EE40197F1F70E94917A109266
:10F70000800085E080938100109285001092840033
:10F7100081E086BBD12CAE014F5F5F4F3A01312CA7
:10F72000212CCE01049625969FAF8EAF259711E030
:10F73000809184009091850020910801222309F492
:10F740004BC093FF4EC05A9A0E948C78809117024A
:10F75000882309F44AC01092170240911302509175
:10F760001402609115027091160280900F02909021
:10F770001002A0901102B0901202E0900C02F090E2
:10F780000D0200910B0250900E025694F52DF3706D
:10F790005F2EF0936D024F3F2FEF52076207720703
:10F7A00069F080916E0290916F02A0917002B09109
:10F7B0007102481759076A077B07B9F40023A9F0BB
:10F7C000F70180818A3719F5D0900701DD2059F0C3
:10F7D00010930601D12C09C09F738115944008F441
:10F7E000B2CF5A98B1CF10930701B09BA1CF81E05F
:10F7F00086BBD39435E03D1508F099CFF101859192
:10F800009491019609F493CF0E94B77990CF8A35ED
:10F8100029F41092060110920701DCCF4F3F5F4F91
:10F820006F4F7F4F11F390910601992379F085373F
:10F83000E1F61092060110920701C501B4010E9481
:10F84000697A0E94777A0E94917AC4CF803709F44E
:10F85000EAC0E0F5873609F413C138F4813499F32E
:10F86000C501B4010E94697AC0CF883609F4FFC08F
:10F870008E36B1F760916E0270916F0280917002C6
:10F880009091710258E4598322E42A8327E52B835F
:10F890007E01EBE0EE0EF11C2AE030E040E050E0AB
:10F8A0000E94807D605DF70162937F01B901CA010A
:10F8B00025962EAD3FAD25972E173F0769F7452DAD
:10F8C0004295440F407E48690AE0C2C0853709F47A
:10F8D000B0CF08F5823721F6043008F47BCFF7016A
:10F8E000C180D280DC24CD24DC2403811093080164
:10F8F0000E947A79013408F000E4D301C618D708D1
:10F900008A2F8619801708F4B5C0452D4295440FFB
:10F91000407E49619DC0863709F4A0C0873709F051
:10F920009FCF043008F456CFF701C180D280DC2489
:10F93000CD24DC2483819CEF492E400E841508F4ED
:10F94000482E22961FAE229723964FAE2397452D21
:10F950004295440F407E496102E09E012F5B3F4F7C
:10F96000C501B4010E94CC7910930801042D013423
:10F9700008F000E4402F50E0B7016C5F7F4FC301F7
:10F980000E94A97D8091090181110DC023E0F10140
:10F9900020935700E8950E94627931E13093570037
:10F9A000E89510930901802F90E0B0E0A0E08C0D65
:10F9B0009D1DA11DB11D5301C618D7088130904F60
:10F9C000A105B10508F006CF8A2D8619801708F029
:10F9D00001CF7601EA0CFB1C4701882480910001CD
:10F9E000909101018816990671F00E947A7990929F
:10F9F00001018092000140E051E06FEF70E08BE088
:10FA000091E00E94B27DF50181915F01209100019A
:10FA100030910101F701E21BF30BE55FFE4F80839C
:10FA200010930A01D1CF0E947A792FEF3FEF3093E4
:10FA300001012093000110920A011092090119821C
:10FA400030E43A83452D4295440F407E496102E0FF
:10FA50009301C501B4010E94CC79BCCE198245E066
:10FA60004A83452D4295440F407E4869F0CF198264
:10FA70001A82F7CFF601EA0FFB1FE491ED9340CF16
:10FA8000053048F1F701C180D280DC24CD24DC248C
:10FA9000E380F480FE24EF24FE240E947A79C501DD
:10FAA000B4010E94697A80E29EE40197F1F7053083
:10FAB00000F12FEF3FEF3A832983B12CA12CCA1418
:10FAC000DB0471F489819A81E816F90609F082CE87
:10FAD0000E94B7797FCEF12CE12CD12CC12CDDCF47
:10FAE000F5018491B3010E946478FFEFAF1ABF0A59
:10FAF000E6CFF10185919491019609F46BCEE8CFA0
:10FB0000A1E21A2EAA1BBB1BFD010DC0AA1FBB1F21
:10FB1000EE1FFF1FA217B307E407F50720F0A21B93
:10FB2000B30BE40BF50B661F771F881F991F1A9400
:10FB300069F760957095809590959B01AC01BD012A
:10FB4000CF0108956927962769277827872778277F
:10FB50000895FB01DC0102C001900D92415050401C
:10FB6000D8F70895DC0101C06D9341505040E0F793
:10FB70000895F999FECF92BD81BDF89A992780B575
:06FB80000895F894FFCF88
:06FB8600FFFFFFFFFFFF7F
:040000030000F00009
:00000001FF
