:107000000C942A380C9447380C9447380C94473821
:107010000C9447380C9447380C9447380C944738F4
:107020000C9447380C9447380C9447380C944738E4
:107030000C9447380C9447380C9447380C944738D4
:107040000C9447380C9447380C9447380C944738C4
:107050000C94473811241FBECBE5D8E0DEBFCDBF6E
:1070600010E0A0E6B0E0EEE2FBE702C005900D9272
:10707000A636B107D9F721E0A6E6B0E001C01D921F
:10708000A235B207E1F70E94D03A0C94953D0C94DA
:1070900000385D9BFECF8CB90895FB0120813181C2
:1070A00098E0432F441F4427441F220F331F87FDBE
:1070B0002160442321F0F2E02F27F0E13F27880FE1
:1070C000915079F7FB013183208308951092F900E4
:1070D0001092F8001092FC008FEF9FEF90936500E4
:1070E000809364001092FB0008950F931F93CF9339
:1070F000DF93D1E00FEF1FEF8091F7008111C3C044
:107100005F9BC1C0CCB183E08C0F8230B0F4D093D0
:10711000F9001092F8001092FC00109365000093A3
:1071200064001092FB00109363000093620062E61B
:1071300070E08C2F0E944D38DFCF8091F9008823BA
:10714000D9F2CC3F19F4D093F800D6CF8091F80053
:10715000882319F0C0681092F80062E670E08C2F66
:107160000E944D388091FC008035B0F4E82FF0E0AB
:10717000E350FF4FC083843079F4C3FF05C091E032
:107180002C2F2370233009F490E09093FA00992378
:1071900069F19AE09093FB002091FB00222371F0AB
:1071A000422F50E0BA01615071098617170631F479
:1071B0004C0F511D50936500409364008F5F809386
:1071C000FC004091640050916500141615060CF007
:1071D00056C08417150609F052C080916200909144
:1071E0006300892B29F00E94663886CF96E0D2CFC3
:1071F0006091FD007091FE008091FF009091000170
:107200000E94763D6093F3007093F4008093F50044
:107210009093F600809101018093EE008091FA0036
:10722000882349F16091020170910301809104016A
:10723000909105010E94763D6093EF007093F000FD
:107240008093F1009093F200822F90E0FC01E450D3
:10725000FF4F2081223008F422E022502093EB00DF
:1072600083509F4F9093ED008093EC000E9466380E
:10727000D093F70041CF60E070E0CB01DDCF8035E7
:1072800008F43ACFB0CFDF91CF911F910F910895BD
:1072900007B600FE08950E947538FACFCF93C82F25
:1072A0000E944D3884E08C0F833040F48CEF0E94B4
:1072B00049388C2F8F77CF910C9449388C2FFBCF86
:1072C000CF93DF9380916A00882309F433C0C09183
:1072D0006000D091610083E0FE0180935700E89543
:1072E0000E9448392BEE30E0ABE6B0E041E0BE0151
:1072F0006B567040FB01EA0FFB1F11968C911197A2
:107300009C918927982789270C0140935700E8957D
:10731000112412962A173B0769F785E0FE01809336
:107320005700E8950E94483981E180935700E8951D
:1073300010926A00DF91CF91089592981AB8F8944C
:10734000F0E0E0E00994CF9394E0980F933030F4AC
:10735000C82F8CEF0E9449388C2F8F77CF910C94D7
:107360004938AF92BF92CF92DF92EF92FF920F9384
:107370001F93CF93DF9300D0CDB7DEB7F62EE72E65
:10738000B82EA92E142F69018FEF9FEF9A8389835E
:10739000949A8DEF0E944938BE016F5F7F4F8DEF49
:1073A0000E944D38BE016F5F7F4F8A2D0E944E397B
:1073B000BE016F5F7F4F8B2D0E944E39BE016F5F04
:1073C0007F4F8E2D0E944E39BE016F5F7F4F8F2DF4
:1073D0000E944E39BE016F5F7F4F812F0E944E3950
:1073E00013FF1FC010914E01F0904F01E09050012B
:1073F00080915101BE016F5F7F4F0E944E39BE01E7
:107400006F5F7F4F8E2D0E944E39BE016F5F7F4FA1
:107410008F2D0E944E39BE016F5F7F4F812F0E94DA
:107420004E39BE016F5F7F4F82E0800F0E944E3960
:1074300076010C0D1D2D111DBE016F5F7F4FE016F3
:10744000F10601F580E00E944D38BE016F5F7F4F6D
:1074500080E00E944D388A810E94A33989810E9470
:10746000A3395E9BFECF5E9A94980F900F90DF91A8
:10747000CF911F910F91FF90EF90DF90CF90BF9031
:10748000AF900895F70181917F010E944E39D4CFCA
:107490000F9340914D014295440F407E496100E0B9
:1074A00030E020E00E94B1390F9108950F93CF93FF
:1074B000DF9300D0CDB7DEB78FEF898388E08A8372
:1074C00002E09E012F5F3F4F48EF6FEF7FEFCB0150
:1074D0000E94B1390F900F90DF91CF910F910895D5
:1074E0008F929F92AF92BF92CF92DF92EF92FF92D4
:1074F0000F931F93CF93DF93CDB7DEB760970FB68F
:10750000F894DEBF0FBECDBF81E489831A821B824F
:107510001C821D8285E08E8360914E0170914F0127
:10752000809150019091510128E42F8322E4288713
:1075300027E529878E010F5F1F4F7E0126E0E21AA3
:10754000F10868012AE0822E912CA12CB12CA50112
:1075500094010E94543D605DF8016787B901CA013A
:1075600001501109E016F10691F700E1960148EF8C
:107570006FEF7FEFCB010E94B13960960FB6F894A0
:10758000DEBF0FBECDBFDF91CF911F910F91FF9056
:10759000EF90DF90CF90BF90AF909F908F90089525
:1075A000CF93DF93CDB7DEB7C454D1090FB6F894AB
:1075B000DEBF0FBECDBF24B714BE0FB6F894A8959A
:1075C00081B5886181BD11BC0FBE80915C0890912E
:1075D0005D08A0915E08B0915F0810925C0810925F
:1075E0005D0810925E0810925F08F0E0E0E04591BF
:1075F00054914F3F5F4F49F023FF05C08A379A4DA2
:10760000A740B04B11F00E949D398CEF93E00E948F
:107610008D3D182F8DEF93E00E948D3D90E0B0E0FE
:10762000A0E07C01DD24CC24F12A8EEF93E00E94BF
:107630008D3D182F8FEF93E00E948D3D9601282BF2
:10764000D701C901912B80934E0190934F01A093D4
:107650005001B09351018F3F9F4FAF4FBF4F61F427
:107660008FEF9FEFAFEFB2E480934E0190934F0105
:10767000A0935001B093510110BC83E389B986EA0D
:1076800080BD88E18AB98C9A94988A9A88EC90E0B7
:1076900020E931E0F9013197F1F70197D9F70E941C
:1076A000563A80E29EE40197F1F70E94703A1FBCBF
:1076B00085E08EBD1DBC1CBC84E088BFD12CAE0112
:1076C0004F5F5F4F3A01312C212CCE010496259655
:1076D0009FAF8EAF259711E08CB59DB520916800C6
:1076E000222309F44BC093FF4EC0929A0E94753832
:1076F0008091F700882309F44AC01092F700409166
:10770000F3005091F4006091F5007091F6008090C4
:10771000EF009090F000A090F100B090F200E090A7
:10772000EC00F090ED000091EB005090EE005694CC
:10773000F52DF3705F2EF0934D014F3F2FEF520761
:107740006207720769F080914E0190914F01A091FC
:107750005001B0915101481759076A077B07B9F4E6
:107760000023A9F0F70180818A3721F5D0906700C6
:10777000DD2059F010936600D12C09C09F7381154C
:10778000944008F4B2CF9298B1CF1093670008B636
:1077900002FEA2CF84E088BFD39435E03D1508F007
:1077A0009ACFF10185919491019609F494CF0E94AA
:1077B0009D3991CF8A3529F41092660010926700A6
:1077C000DBCF4F3F5F4F6F4F7F4F09F390916600C4
:1077D000992379F08537D9F61092660010926700E8
:1077E000C501B4010E94483A0E94563A0E94703A7C
:1077F000C3CF803709F4EBC0E0F5873609F414C134
:1078000038F4813499F3C501B4010E94483ABFCFDE
:10781000883609F400C18E36B1F760914E0170913F
:107820004F01809150019091510158E4598322E415
:107830002A8327E52B837E01EBE0EE0EF11C2AE084
:1078400030E040E050E00E94543D605DF7016293FB
:107850007F01B901CA0125962EAD3FAD25972E17A0
:107860003F0769F7452D4295440F407E48690AE07D
:10787000C3C0853709F4B0CF08F5823721F604304C
:1078800008F47ACFF701C180D280DC24CD24DC2437
:107890000381109368000E946039013408F000E40D
:1078A000D301C618D7088A2F8619801708F4B6C0E6
:1078B000452D4295440F407E49619EC0863709F4AC
:1078C000A1C0873709F09FCF043008F455CFF701E6
:1078D000C180D280DC24CD24DC2483819CEF492E1E
:1078E000400E841508F4482E22961FAE2297239648
:1078F0004FAE2397452D4295440F407E496102E0EB
:107900009E012F5B3F4FC501B4010E94B139109316
:107910006800042D013408F000E4402F50E0B70166
:107920006C5F7F4FC3010E947D3D80916900811192
:107930000DC023E0F10120935700E8950E944839DB
:1079400031E130935700E89510936900802F90E063
:10795000B0E0A0E08C0D9D1DA11DB11D5301C61806
:10796000D70881309047A105B10508F005CF8A2DD1
:107970008619801708F000CF7601EA0CFB1C47013E
:1079800050E88522809160009091610088169906E8
:1079900071F00E946039909261008092600040E82E
:1079A00050E06FEF70E08BE690E00E94863DF501BD
:1079B00081915F012091600030916100F701E21B2D
:1079C000F30BE559FF4F808310936A00D0CF0E94DC
:1079D00060392FEF3FEF30936100209360001092E9
:1079E0006A0010926900198230E43A83452D42956D
:1079F000440F407E496102E09301C501B4010E9439
:107A0000B139BACE198245E04A83452D4295440FDB
:107A1000407E4869F0CF19821A82F7CFF601EA0F4B
:107A2000FB1FE491ED933FCF053048F1F701C18092
:107A3000D280DC24CD24DC24E380F480FE24EF24F7
:107A4000FE240E946039C501B4010E94483A80E2D8
:107A50009EE40197F1F7053000F12FEF3FEF3A83F5
:107A60002983B12CA12CCA14DB0471F489819A8179
:107A7000E816F90609F080CE0E949D397DCEF12CE2
:107A8000E12CD12CC12CDDCFF5018491B3010E94F2
:107A90004D38FFEFAF1ABF0AE6CFF10185919491FF
:107AA000019609F469CEE8CFA1E21A2EAA1BBB1BEE
:107AB000FD010DC0AA1FBB1FEE1FFF1FA217B307BA
:107AC000E407F50720F0A21BB30BE40BF50B661FD0
:107AD000771F881F991F1A9469F760957095809594
:107AE00090959B01AC01BD01CF01089569279627B0
:107AF00069277827872778270895FB01DC0102C0D2
:107B000001900D9241505040D8F70895DC0101C01A
:107B10006D9341505040E0F70895E199FECF9FBB2F
:0E7B20008EBBE09A99278DB30895F894FFCF9D
:067B2E00FFFFFFFFFFFF57
:040000030000700089
:00000001FF
